:020000040800F2
:10000000282F01208902000807520008AB1F0008B2
:1000100005520008170B00084164000800000000AA
:10002000000000000000000000000000C1520008B5
:10003000890D00080000000029520008C352000882
:10004000A3020008A3020008A3020008A3020008FC
:10005000A3020008A3020008A3020008A3020008EC
:10006000A3020008A3020008A3020008A3020008DC
:10007000A3020008A3020008A3020008A3020008CC
:10008000A3020008A3020008A3020008A3020008BC
:10009000A3020008A3020008A3020008A3020008AC
:1000A000A3020008A3020008A3020008A30200089C
:1000B000D9520008A30200083D530008A30200081B
:1000C000A3020008A3020008A3020008A30200087C
:1000D000A302000815640008A3020008A302000898
:1000E000A3020008A3020008A3020008A30200085C
:1000F000A3020008A3020008A3020008A30200084C
:10010000A3020008A3020008A3020008A30200083B
:10011000A3020008A3020008A3020008A30200082B
:10012000A3020008A3020008A3020008A30200081B
:10013000A3020008A3020008A3020008A30200080B
:10014000A3020008A3020008A3020008A3020008FB
:10015000A3020008A3020008A3020008A3020008EB
:10016000A3020008A3020008A3020008A3020008DB
:10017000A3020008A3020008A30200080000000078
:10018000A3020008A302000800F002F800F06DF8D6
:100190000AA090E8000C82448344AAF10107DA45E2
:1001A00001D100F062F8AFF2090EBAE80F0013F0C7
:1001B000010F18BFFB1A43F00103184770450300F5
:1001C000904503000A444FF0000C10F8013B13F077
:1001D000070408BF10F8014B1D1108BF10F8015BA0
:1001E000641E05D010F8016B641E01F8016BF9D193
:1001F00013F0080F1EBF10F8014BAD1C0C1B09D1EA
:100200006D1E58BF01F801CBFAD505E014F8016B5B
:1002100001F8016B6D1EF9D59142D6D370470000ED
:100220000023002400250026103A28BF78C1FBD8FF
:10023000520728BF30C148BF0B607047642900F0E7
:100240001781752900F01481782900F04D81632908
:1002500000F08883732900F08D83002070471FB55C
:100260002BF01DFA1FBD10B510BD00F0BDFB1146EF
:10027000FFF7F5FF25F0C8F800F0DBFB03B4FFF74C
:10028000F2FF03BC07F0F6FC094880470948004725
:10029000FEE7FEE7FEE7FEE7FEE7FEE7FEE7FEE736
:1002A000FEE7FEE704480549054A064B7047000093
:1002B000C95200088901000828EF0020282F0120DA
:1002C000280F0120280F0120704753EA020C00F08C
:1002D00069802DE9F04B4FF00006002B1FBFB3FAE9
:1002E00083F503FA05F424FA05F65E4012BF1643BF
:1002F000B2FA82F502FA05F4C5F120051EBF22FA12
:1003000005FC44EA0C04203556EA044C4FEA144438
:1003100018BF641C4FF000084FF00009904271EBC9
:10032000030C39D3002919BFB1FA81F701FA07F696
:10033000B0FA80F700FA07F6C7F120071EBF20FACF
:1003400007FC46EA0C062037B6FBF4FCA7EB0507D2
:10035000103F07F01F0BCBF120060CFA0BFB2CFA19
:1003600006F644BFB3460026202FA4BF5E464FF0DA
:10037000000B5BEA060C08BF4FF0010B19EB0B09F1
:10038000ABFB027C48EB0608C01B06FB02CC0BFB58
:1003900003CC71EB0C01C1E70B46024641464846CF
:1003A000BDE8F08B13B54FF000004FF00001AFF344
:1003B0000080BDE81C4070470FB4044910B503AA83
:1003C000029800F0DBFA10BC5DF814FB100000206E
:1003D00070B5044685690068C10601D5302600E085
:1003E0002026C00707D070BDD4E9012130469047D0
:1003F000206A401C20626D1EF6D570BD70B50446A3
:1004000085690078C00707D170BDD4E9012120209B
:100410009047206A401C20626D1EF6D570BD70B5F5
:100420000C460546012A05D02878800600D5EA69E1
:10043000002302E0012305E05B1C934202D2E05C52
:100440000028F9D1A869E618C01AA861286A1844DA
:1004500028622846FFF7BCFF04E0D5E9012114F823
:10046000010B9047B442F8D32846FFF7C7FF70BD91
:100470002DE9F0410646002410687529314616A57D
:1004800010D0AFF30080002802DA404213A507E045
:1004900031688A0701D512A502E0490704D511A5E4
:1004A000012401E0AFF3008000210A2206F12407B5
:1004B00009E0B0FBF2FCB0FBF2F302FB1C003030B1
:1004C00078541846491C0028F3D123462A46304662
:1004D000BDE8F04100F0E3B9000000002D0000008D
:1004E0002B0000002000000070B504460D46214698
:1004F0001068AFF300802188090502D50F4A7A44BD
:1005000002E00E4A7A440E32002104F1240305E091
:1005100000F00F060009965D5E54491C0028F7D1D3
:1005200020780023000704D5702D02D009B10223E2
:1005300011322046BDE8704000F0B1B9CE3B030057
:100540002DE9F05F894604464FF0000ADFF874B1E8
:10055000FB44C0F820A02046E1688847002874D0FA
:10056000252806D0D4E901219047206A401C20624A
:10057000F1E700265F462046E168884720280546C7
:1005800007DB312D05D2781910F8200C08B106438D
:10059000F1E7B00701D526F00406C4F81CA0002737
:1005A000C4F818A02A2D09D0284605F0A5FF38B3B5
:1005B00004EB8708303DC8F8185019E059F8041BBF
:1005C000204604EB87029161E1688847012F0546C8
:1005D00018D1E069002820DA26F020061DE0D8F8BE
:1005E000180000EB800005EB40003038C8F8180018
:1005F0002046E1688847054605F07EFF0028EED1D9
:10060000012F0AD02E2D08D12046E16888477F1C93
:100610000546022F46F02006C4DBA069002803DA55
:10062000404246F00106A061F00701D026F0100616
:100630006C2D0BD0682D09D04C2D39D06A2D35D0BA
:10064000742D35D07A2D33D016E038E0E1682F468E
:1006500020468847B842054609D16C2F26D04FF472
:100660008060E168064320468847054604E06C2F19
:100670001AD04FF4807006430DB3A5F1410019283C
:1006800002D8203546F400664A46294620462660B0
:100690004E46FFF7D3FD80B101280BD0F61D26F0A2
:1006A000070000F1080956E74020E4E78020D8E77A
:1006B0000020D6E706F104094DE7284652E7206AF4
:1006C000BDE8F09FA43B030040EA0103024630B5B9
:1006D0009B0710D14FF0013400E008C208C91D1B70
:1006E0009D4315EAC41FF8D013F0FF0102F8011B67
:1006F0000DD01B0AF8E711F8013B002B02F8013B73
:1007000005D011F8013B002B02F8013BF3D130BDBD
:1007100010B5431C02E010F8011B71B18107FAD13A
:100720004FF0013202C88C1A8C4314EAC211F9D07E
:10073000C01A0A0603D0C01E10BDC01A10BD0A049C
:1007400001D0801E10BD0902FCD0401E10BD10B5A6
:10075000203AC0F00B80B1E81850203AA0E81850B9
:10076000B1E81850A0E81850BFF4F5AF5FEA027C7A
:1007700024BFB1E81850A0E8185044BF18C918C0E9
:10078000BDE810405FEA827C24BF51F8043B40F88A
:10079000043B08BF7047D20728BF31F8023B48BF6F
:1007A00011F8012B28BF20F8023B48BF00F8012BAD
:1007B00070474FF0000200B5134694469646203924
:1007C00022BFA0E80C50A0E80C50B1F12001BFF40A
:1007D000F7AF090728BFA0E80C5048BF0CC05DF870
:1007E00004EB890028BF40F8042B08BF704748BFBE
:1007F00020F8022B11F0804F18BF00F8012B704732
:100800004FF0013C50F8042B51F8043B9A4221D19F
:10081000A2EB0C03934313EACC1317D150F8042B2B
:1008200051F8043B9A4215D1A2EB0C03934313EA0F
:10083000CC130BD150F8042B51F8043B9A4209D148
:10084000A2EB0C03934313EACC13DBD04FF0000070
:10085000704700BFD01A01BAB1FA81F101F0180156
:1008600022FA01F0CB40C1F12001DBB2C0B2C01AC4
:100870002CFA01F3D11A914311EAC311E6D1704762
:10088000704770477047704710B500F089F80068EE
:1008900010BD10B5044600F083F8046010BD2DE9CA
:1008A000F0470D4699469246044600F12408016837
:1008B000880604D5E06921F01001216000E00120E4
:1008C000A84201DD471B00E00027A1697A1902EB6D
:1008D0000900081AA0612078C00602D42046FFF75C
:1008E00077FD002608E0D4E901211AF806009047B8
:1008F000206A401C761C20624E45F4DB2078C0063E
:100900000AD52046FFF764FD06E0D4E90121302036
:100910009047206A401C2062381EA7F10107F4DCD2
:1009200007E0D4E9012118F805009047206A401C2F
:100930002062281EA5F10105F3DC2046FFF75EFDCD
:100940002078000602D50220BDE8F0870120FBE7F1
:1009500010B5436913B1AFF3008001E0FFF75FFD0D
:10096000012010BD127800F124010A7000224A70A3
:100970000122EDE711684FF0FF32E9E7074B70B550
:100980000D467B4400F015F80446284600F024F894
:1009900010B14FF0FF3070BD204670BDF311010063
:1009A00000487047C8EE002001694A1C02610878BF
:1009B000704700B58FB0CDE901310021059105499F
:1009C0007944CDE9031011466846FFF7B9FD0FB031
:1009D00000BD0000E5FFFFFF007B00F080007047D6
:1009E00000487047C8EE00207546FFF7F9FFAE4695
:1009F00005006946534620F00700854618B020B52B
:100A0000FFF750FCBDE820404FF000064FF0000714
:100A10004FF000084FF0000B21F00701AC46ACE8A6
:100A2000C009ACE8C009ACE8C009ACE8C0098D4613
:100A300070470446AFF300802046FFF71FFC01F02B
:100A4000D5BA2DE9F0410D460146002004464E1965
:100A500008E00702301B401E80B200F007F8641C5B
:100A60003844E4B2AC42F4D3BDE8F08110B504469A
:100A700001F064FB200AA02101EB4000C0B201F0AC
:100A80002DFB01F09FFBE0B201F028FB01F09AFB87
:100A900001F054FBA12001F021FB01F093FB0020A9
:100AA00001F0E8FA044601F069FB204610BD2DE98B
:100AB000F04116460D460746002409E0E00025FAFD
:100AC00000F0C1B2381980B200F006F8641CE4B23C
:100AD000B442F3D3BDE8F08170B50D46044601F091
:100AE0002DFB200AA02101EB4000C0B201F0F6FA74
:100AF00001F068FBE0B201F0F1FA01F063FB284677
:100B000001F0ECFA01F05EFB01F038FBBDE870404B
:100B10000A2009F0E3B9FEE770B50E4C0025C4F8D1
:100B2000BC520D48016821F040710160016841F03C
:100B300080710160022004F52C7409F0DDF9256054
:100B4000022009F0D9F90120E060022009F0D4F96F
:100B5000E56070BD00804042000402400F4810B5BF
:100B6000016886B041F00201016000680C4C00F0A1
:100B7000020005904FF40040009001200190029087
:100B8000032003906946204600F020FBA114009149
:100B90006946204600F01AFB06B010BD303802400E
:100BA0000004024070B50E4C0026C4F8BC620D482B
:100BB000016821F040710160016841F080710160BD
:100BC000022004F52C7409F097F901252560022014
:100BD00009F092F9E560022009F08EF9E66070BD37
:100BE00000804042000402402DE9F0478146194848
:100BF0000024016821F040710160016801601E203D
:100C000009F07AF90025144E2F464FF00108C6F876
:100C1000BC72022009F070F9C6F8BC826006040EAE
:100C2000022009F069F9D6F8300208B1641CE4B278
:100C3000022009F061F96D1CEDB2082DE7D3B9F17E
:100C4000000F04D0FFF768FF2046BDE8F087FFF7EC
:100C5000A9FFF9E700040240008040422DE9F0417D
:100C600005461548016821F040710160016841F0B6
:100C700080710160114E0027C6F8BC72022009F095
:100C80003BF900244FF00108E809C6F8B0026806F5
:100C9000050E022009F030F9C6F8BC82022009F0E6
:100CA0002BF9C6F8BC72022009F026F9641CE4B2E4
:100CB000082CE9D3BDE8F0810004024000804042E6
:100CC00070B50D48016821F040710160016841F084
:100CD00080710160094C0120C4F8B002C4F8BC0264
:100CE0001E2004F52C7409F007F900252560022068
:100CF00009F002F9E56070BD000402400080404246
:100D000070B50C48016821F040710160016841F044
:100D100080710160084C0125C4F8BC521E2004F506
:100D20002C7409F0E9F800202060022009F0E4F8B2
:100D3000256070BD000402400080404270B510483C
:100D40000024016821F040710160016801600D4DCF
:100D50000120C5F8B002C5F8BC0207E0641CE4B28B
:100D6000FA2C03D9FFF7CCFF012070BD022009F057
:100D7000C3F8D5F830020028F0D1C5F8BC0270BD28
:100D800000040240008040427047000070B5B3F597
:100D9000804F05D06FF0704140F82210002070BDE8
:100DA00050F82230084C2340D1E9004544EA0514AC
:100DB0008D688E892D0245EA064589692C430C43CE
:100DC0001C4340F82240E9E70000F0CFF0B50C6882
:100DD00050F82450114A1540D1E90123D1E90367A5
:100DE0001A433E4332434E6932438E693243CE69E1
:100DF00032430E6A32434E6A32438E6A3243CE6ABF
:100E00003243CE6B096B32430A432A43082B01D18C
:100E100042F0400240F824200020F0BD8000F0FFA6
:100E200030B500EB82004268D1E9003443EA041394
:100E30008C688D89240244EA054423430C8A084DBA
:100E400002F0404205EB045423430C7D6D0105EB99
:100E50000464896923430B4313434360002030BD7E
:100E60000000F0FF2DE9F041334888B0002401680C
:100E700041F0020101600068012500F002000790C6
:100E80004FF4005003268DE87100DFF8B08069460A
:100E9000404600F09BF9A803CDE9000569464046AD
:100EA00000F094F9FFF75AFE254FC7F8B8420A2020
:100EB00007F52E7709F012F83D600A2009F00EF8C8
:100EC000022700970396CDE901546946404600F099
:100ED0007DF9642009F002F8042205A948F24010C7
:100EE00000F03AF88DF8184005A916A0FFF764FA4B
:100EF00017A105A8FFF784FC18B1012008B0BDE8D0
:100F0000F08148F240058DF81470012205A92846A9
:100F100000F012F9012205A9E81D00F01DF80A20D1
:100F200008F0DCFF8DF81440012205A9284600F0E6
:100F300003F90020E2E700003038024000040240DC
:100F4000008040424354502049443A25730D0A0022
:100F500031313538000000002DE9F04115460F46CB
:100F60000446FFF7ADFE2820FFF778FEFFF7E6FE08
:100F7000200AFFF773FEFFF7E1FEE0B2FFF76EFE17
:100F8000FFF7DCFEFFF79CFE2920FFF767FEFFF767
:100F9000D5FE00246E1E09E0B44201D0012000E01D
:100FA0000020FFF721FE3855641CE4B2AC42F3D3B5
:100FB000BDE8F041FFF7A4BE2DE9F1475A4D0024EA
:100FC0004FF00A0A287883B0401CC0B2B0FBFAF296
:100FD0000AFB1201554EA046287009B10A287AD2A0
:100FE00048F24E19012203A94846FFF7B5FF9DF8C4
:100FF0000C004FF0000701060AD500F00F0006288C
:1010000006D28DF80470012201A9484600F094F838
:101010009DF80C0001075ED000F00F0106295AD29E
:10102000FF2088408DF80400C04396F8209040F0DF
:10103000C00086F82000B089B082F08AF0834FF0BB
:10104000010896F8201008FA04F0014228D0384828
:101050000422694630F81400FFF77EFF96F830004E
:10106000C0070DD09DF802009DF8031000EB012190
:1010700006EB440081819DF800109DF801200CE0F2
:101080009DF800009DF8011000EB012106EB4400E3
:1010900081819DF802109DF8032001EB0221C1829D
:1010A000641CE4B2052CCCD32249B2894FF001086C
:1010B0000B8830469A4203D8C28A49888A4209D9A5
:1010C0009DF80C1001F00F0101290BD9C189818114
:1010D000018BF1822F709DF80C0000F08F008028AA
:1010E0000AD018E0818A8181C18BC18280218DF86C
:1010F0000C1086F82090EEE796F82000010602D545
:1011000020F0800005E04FF6FF71B181F18200F020
:10111000E00086F820002878F02801D985F800A0A2
:1011200004B04046BDE8F087500000201C000020BD
:10113000F4FE0208280500202DE9F04115460E4670
:1011400004460027FFF7BCFD2820FFF787FDFFF7C7
:10115000F5FD200AFFF782FDFFF7F0FDE0B2FFF793
:101160007DFDFFF7EBFD002408E0305DFFF776FD25
:10117000FFF7E4FD070003D1641CE4B2AC42F4D3F2
:10118000FFF7BEFD3846BDE8F08190F83510022922
:1011900003D08021416501207047052180F835107A
:1011A0000068016821F0010101600020704731B53D
:1011B00000F0F8F8009C0546601C00D0641C00F0AC
:1011C000F1F8401BA042FAD338BD00002DE9F84FDA
:1011D000DFF88C91002209F1040A0AF1040B4FF0A8
:1011E0000F080BF1040E01260B6896403340B34202
:1011F00071D14C68022C01D0122C11D1D40800EB13
:1012000084073D6A5407E40E08FA04FC25EA0C053D
:10121000D1F810C00CFA04FC4CEA050CC7F820C049
:1012200007685400032591F804C0A5400CF0030C96
:10123000AF430CFA04FC4CEA070CC0F800C04F683E
:10124000012F05D0022F03D0112F01D0122F11D161
:101250008768D1F80CC0AF430CFA04FC4CEA070CC9
:10126000C0F808C04768B7430E79C6F30016964029
:101270003E434660C668AE438D68A5403543C560B1
:101280004C68E40065D5374C256845F480452560F9
:10129000246822F0030504F480440094324C2E1993
:1012A000D6F808789407250F08FA05F4A7432F4CC1
:1012B000A04201D1002424E02D4CA04201D1012400
:1012C0001FE02C4CA04201D102241AE02A4CA0427B
:1012D00002D1032415E03CE0284CA04201D10424B3
:1012E0000FE0274CA04201D105240AE0254CA04282
:1012F00001D1062405E0244CA04201D1072400E0DE
:101300000824AC403C43C6F80848D9F800404D4694
:101310004E689C43F60300D51C432C60DAF800406D
:1013200055464E689C43B60300D51C432C60DBF841
:1013300000405D464E689C43F60200D51C432C607D
:10134000DEF8004075464E689C43B60200D51C434B
:101350002C60521C102AFFF446AFBDE8F88F000045
:10136000003C01404438024000300140000002408F
:101370000004024000080240000C0240001002403D
:101380000014024000180240001C02400AB18161B2
:1013900070470904FBE7000001480068000C704733
:1013A000002004E0014800687047000004000020AD
:1013B00002480168491C01607047000004000020D9
:1013C000094810B5016841F400710160016841F4F9
:1013D00080610160052000F049F80F2000F006F858
:1013E00000F018F8002010BD003C024010B5044683
:1013F00007484FF47A710068B0FBF1F000F088FB09
:1014000000222146501E00F011F8002010BD0000FF
:1014100000000020704700F01F02012191404009A8
:10142000800000F1E020C0F800117047F0B40E4BCE
:101430001B68C3F30223C3F10704042C00D904245E
:101440001D1D072D01D2002300E0DB1E012606FA38
:1014500004F56D1E0D409D409E40761E164045EAE7
:101460000601F0BC03F0D0BE0CED00E0064A00F02F
:10147000070110684FF6FF03184040EA01200349B6
:1014800008431060704700000CED00E00000FA0512
:101490002DE9F047DFF85C9104460E46D9F80000CC
:1014A00000F00701F0B28046B14207D289F800008F
:1014B000D9F8000000F00700B04271D120784E4FFB
:1014C000800705D53868A16820F0F000084338602F
:1014D0002078C00756D048496068083901281AD0DA
:1014E00002281BD0032819D009688907002957DA78
:1014F000396821F0030101433960FFF753FF0546C6
:10150000606841F28831012811D002281CD00328DC
:101510008A4625D032E009688903E7E7096889012E
:10152000E4E7FFF73FFF411B514501D923E08A461D
:101530003868C0F381000128F3D123E0FFF732FFC0
:10154000411B514501D916E08A463868C0F3810035
:101550000228F3D116E0FFF725FF411B51450AD8B9
:101560003868C0F381000328F5D10BE0FFF71AFFBC
:10157000411B514502D90320BDE8F087386810F0BF
:101580000C0FF3D1D9F80010484601F00701B14221
:1015900008D980F80080006800F00700B04201D050
:1015A0000120E9E72078400705D53868E16820F494
:1015B000E050084338602078000706D53868216974
:1015C00020F4604040EAC100386000F04BF8396810
:1015D000F02292FAA2F201F0F001B2FA82F2D140C6
:1015E000064A515CC840064908600F20FFF7FEFE1E
:1015F0000020C1E7003C024008380240A8B60208BB
:101600000000002008480949006809684FF4E052CA
:1016100092FAA2F201F4E051B2FA82F2D140044A05
:10162000515CC840704700000000002008380240AC
:10163000B8B6020808480949006809684FF46042D2
:1016400092FAA2F201F46041B2FA82F2D140044A65
:10165000515CC8407047000000000020083802407C
:10166000B8B6020830B51948006810F00C011848E7
:1016700012D0184C04290ED008290DD1134A121F7C
:101680001168136801F03F015D0247F6C07304D58D
:10169000B4FBF1F003E0204630BDB0FBF1F011687F
:1016A000194093FAA3F3B3FA83F3D940484311687E
:1016B0004FF4403292FAA2F201F44031B2FA82F2CF
:1016C000D140491C4900B0FBF1F030BD0838024060
:1016D0000024F40040787D012DE9F84F044600789D
:1016E000DFF8F4A2BD4DC00748D0DAF8001050462C
:1016F000C1F38101012908D00068C0F381000228EC
:101700000AD1281D0068400206D52868800335D517
:101710006068002870D031E06068B0F5803F10D07C
:10172000B0F5A02F286810D020F4803028602868F9
:1017300020F4802028606068A0B1FFF733FE0646E1
:101740000CE0286840F48030F4E740F48020286002
:10175000F7E7FFF727FE801B642873D8286880030B
:10176000F7D50BE0FFF71EFE064604E0FFF71AFE72
:10177000801B6428F1D828688003F7D42078DFF82C
:10178000608280074FF0010B4FF0000943D5DAF873
:101790000010504611F00C0F4FF0F80709D0006808
:1017A000C0F3810002280BD18B48001F0068400263
:1017B00006D42868800713D5E06801281CD10FE003
:1017C000E068D0B1C8F800B0FFF7ECFD064604E0D1
:1017D000FFF7E8FD801B0228BFD828688007F7D5EF
:1017E000286897FAA7F22169B2FA82F220F0F8008D
:1017F0009140084328600EE0EBE0C8F80090FFF746
:10180000D1FD064604E0FFF7CDFD801B022819D864
:1018100028688007F7D42078000722D56E4F7148DA
:1018200061696C3779B1C0F800B0FFF7BBFD0646BF
:1018300004E0FFF7B7FD801B022803D83868800753
:10184000F7D50EE079E0C0F80090FFF7ABFD064653
:1018500004E0FFF7A7FD801B02286ED838688007D8
:10186000F7D42078400750D55B483830016841F004
:101870008051016000685C4F00F080500090386833
:1018800040F480703860FFF78DFD064604E0FFF7F6
:1018900089FD801B022850D83868C005F7D54E4F07
:1018A000A068683701280FD00528386810D020F0CC
:1018B00001003860386820F004003860A068B0B1DA
:1018C000FFF770FD06460EE0386840F00100F4E7CF
:1018D00040F004003860F7E7FFF764FD811B41F238
:1018E000883081426DD838688007F5D50DE0FFF764
:1018F00059FD064606E0FFF755FD811B41F2883091
:1019000081425ED838688007F5D4A069F0B3DAF870
:101910000010C1F3810102295BD00228484605D09E
:10192000C8F86000FFF73EFD04464DE04746C8F8A2
:101930006000FFF737FD064605E042E0FFF732FDA5
:10194000801B02283DD828688001F7D4D4E907011C
:10195000084347F6C07292FAA2F2616AB2FA82F2C2
:101960009140A26A4FF0FF3303EB52024FF4403331
:1019700093FAA3F3B3FA83F39A4011434FF07062E2
:1019800092FAA2F20843B2FA82F200E01FE0E16AA2
:10199000914008431049091F0860C7F860B0FFF77D
:1019A00001FD044604E0FFF7FDFC001B022808D8F7
:1019B00028688001F7D50AE0FFF7F4FC001B022835
:1019C00002D90320BDE8F88F28688001F4D40020F4
:1019D000F8E70120F6E7000008380240003802402E
:1019E00000004742800E47420070004070B5154627
:1019F0000E46040003D094F8490010B107E001201E
:101A000070BD002084F84800204600F01BF804F167
:101A100008012068FFF7DAF93146A2682068FFF76D
:101A2000FFF9D4E901022946236BFFF7AFF9A1685A
:101A3000206850F8212042F0010240F821200020C7
:101A400070BD0000294810B5016886B041F0010161
:101A50000160006800F00100059024480838016822
:101A600041F008010160016801F008010591016879
:101A700041F010010160016801F010010591016859
:101A800041F020010160016801F020010591016829
:101A900041F0400101600068154C00F040000590E5
:101AA0004CF233700090022001900120029003203C
:101AB00003900C20049069462046FFF787FB4FF601
:101AC0008071009169460B48FFF780FB4FF400518D
:101AD000009169462046FFF779FB80210091694615
:101AE0002046FFF773FB06B010BD000038380240F7
:101AF000000C0240001002404FF0E0210428086969
:101B000003D020F004000861704740F00400FAE7B9
:101B100010B5401EB0F1807F01D3012010BD4FF001
:101B2000E02460610F21601703F06EFB0020A061CC
:101B300007202061002010BD7047704710B50400D9
:101B400003D094F8390010B107E0012010BD002047
:101B500084F83800204600F00CF8022084F83900A0
:101B6000211D206803F004FC012084F839000020C6
:101B700010BD70470168CA6842F00102CA6000687F
:101B8000016841F00101016000207047704770B5A5
:101B90000446006801694FF00005C943890715D460
:101BA000C168C943890711D4E91E0161012020766B
:101BB000206880698007204602D0FFF7E7FF04E035
:101BC00000F098F8204600F096F825762068016924
:101BD000C943490717D4C168C943490713D46FF0F3
:101BE00004010161022020762068806910F4407FA2
:101BF000204602D0FFF7CAFF04E000F07BF8204641
:101C000000F079F8257620680169C943090716D4E0
:101C1000C168C943090712D46FF0080101610420AB
:101C200020762068C0698007204602D0FFF7AEFF0B
:101C300004E000F05FF8204600F05DF825762068AB
:101C40000169C943C90617D4C168C943C90613D479
:101C50006FF010010161082020762068C06910F43F
:101C6000407F204602D0FFF791FF04E000F042F8E9
:101C7000204600F040F8257620680169C943C9076D
:101C800008D1C168C943C90704D1891E0161204632
:101C900000F032F820680169C943090609D4C16817
:101CA000C943090605D46FF0800101612046FFF7A2
:101CB00043FF20680169C943490609D4C168C94383
:101CC000490605D46FF040010161204600F01CF880
:101CD00020680169C94389060BD4C168C9438906D4
:101CE00007D46FF0200101612046BDE87040FFF786
:101CF00024BF70BD704770470068B0F1804F02D1BB
:101D0000012022F051BE70477047704710F8391F0C
:101D1000407808437047000070B5026804461068B8
:101D2000D168536910F00F0F51D003F0010501F491
:101D3000907635435DD0C20705D0CA0503D5E26B66
:101D400042F00102E263420705D5DA0703D0E26BF5
:101D500042F00202E263820705D5DA0703D0E26BA4
:101D600042F00402E263020705D5DA0703D0E26B12
:101D700042F00802E263E26B002A34D0800604D508
:101D8000880602D5204604F077F920684069E16BA7
:101D9000C0F3801001F008010143204624D004F074
:101DA0005DF92068416949061AD5416921F0400171
:101DB0004161606BA0B11B490165606BFFF7E5F9FC
:101DC000002810D0606B016DBDE8704008478306A5
:101DD0000FD58B060DD52046BDE8704004F04CB9F8
:101DE0002046FFF792FF70BDFFF78FFF0020E063F2
:101DF00070BD030606D50B0604D52046BDE870402D
:101E000004F0D6BA4006F3D54806F1D5D16820468D
:101E100021F04001D160202184F8391000F0C4F88D
:101E200070BD00004D60000870B5040004D094F847
:101E30003900002510B106E0012070BD84F838504B
:101E4000204600F023F8242084F839002068C16877
:101E500021F40051C160204604F054F92068016962
:101E600021F4904101612068416921F02A0141611A
:101E70002068C16841F40051C160E563202084F806
:101E8000390084F83A00002070BD000010B50068E9
:101E90001A4986B088422FD11948016841F00101E2
:101EA0000160006800F001000590154814300168D9
:101EB00041F0100101600068012100F01000059060
:101EC0004FF4007000900220CDE90101039007203B
:101ED0000C4C049069462046FFF778F921150091D3
:101EE00069462046FFF772F92520FFF794FA03228E
:101EF00011462520FFF79AFA06B010BD00100140E8
:101F0000303802400000024090F83A30202B1DD1BA
:101F1000D1B1CAB190F83830012B17D081628285D7
:101F2000C2850021C163222280F83A2080F838104F
:101F300001684A6942F001024A610068C16841F4DF
:101F40009071C160002070470120704702207047E7
:101F500030B50068114988420CD1114A50880104FB
:101F600008D41146440409784FF0000306D50A2925
:101F700001D0538030BD40F400400DE00D2909D060
:101F8000C0F30D04074D401C80B229555080C7286E
:101F9000EFD830BD40F48040508030BD001001408B
:101FA0000C000020940300207047FEE770B50D4C34
:101FB0000025C4F8A0520C48016821F440210160BA
:101FC000016841F480210160C4F8A452022004F5A4
:101FD000287407F091FF01202060022007F08CFF99
:101FE000256070BD00804042000402400E4810B5DC
:101FF000016886B041F0020101600068012400F030
:10200000020005904FF44070CDE900040220CDE9B4
:10201000024069460548FFF7D9F80548C0F8A442D0
:10202000C0F8A04206B010BD3038024000040240A3
:102030000080404270B50D4C0026C4F8A0620C48E8
:10204000016821F440210160016841F480210160B0
:102050000125C4F8A452022004F5287407F04CFFAF
:102060002560022007F048FF266070BD00804042D6
:10207000000402402DE9F04781461648002401681B
:1020800021F44021016001680160134E2546274676
:102090004FF00108C6F8A072022007F02DFFC6F825
:1020A000A0826006040ED6F8240208B1641CE4B2D3
:1020B000012007F021FF6D1CEDB2082DEAD3B9F124
:1020C000000F04D0FFF772FF2046BDE8F087FFF74E
:1020D000B1FFF9E700040240008040422DE9F041E1
:1020E00005461448016821F440210160016841F46B
:1020F00080210160104E0027C6F8A0723C464FF0C8
:102100000108E809C6F8A4026806050E022007F0D7
:10211000F3FEC6F8A082022007F0EEFEC6F8A07219
:10212000022007F0E9FE641CE4B2082CE9D3BDE804
:10213000F0810000000402400080404270B50D486C
:10214000016821F440210160016841F480210160AF
:10215000094C0120C4F8A402C4F8A002042004F52C
:10216000287407F0C9FE00256560042007F0C4FE4E
:10217000256070BD000402400080404270B50F48E9
:10218000016821F440210160016841F4802101606F
:102190000B4C0020C4F8A002C4F8A402042004F5EB
:1021A000287407F0A9FE01252560042007F0A4FE8D
:1021B0006560BDE87040042007F09EBE0004024048
:1021C0000080404270B512480024016821F440218B
:1021D0000160016801600F4D0126C5F8A462304618
:1021E00007F08AFEC5F8A062012007F085FE07E02F
:1021F000641CE4B2FA2C03D9FFF7C0FF012070BDC4
:10220000D5F824020028F3D1C5F8A00270BD000063
:102210000004024000804042F0B5144887B0002519
:10222000016841F001010160016801F001010591BF
:10223000016841F0040101600068012600F004001B
:10224000059002270324CDE90274CDE900656946B3
:102250000748FEF7BBFFCDE90274CDE9006569468A
:102260000448FEF7B3FF07B0F0BD0000303802406D
:102270000000024000080240F0B50D4F0546002462
:1022800038887E8821464643204602F059FE02F0F7
:102290007FFF084847F28972B9882B0A04E091420F
:1022A00000D103800580641CB442F8D3F0BD000067
:1022B00028050020000008602DE9F04F8346A2EBBE
:1022C0000B00401C0F4685B2D81B401C1FFA80F93A
:1022D0000024DFF850A0099E1FE0381981B258464B
:1022E00002F02EFE02F054FF0F49002047F28978D9
:1022F000B1F804C053460CE004FB0501C44503D10A
:1023000036F81120120A1A8036F811101980401C74
:1023100080B2A842F0D3641CA4B24C45DDD3BDE822
:10232000F08F000000000860280500202DE9F04F24
:10233000354B2C27194698712A2589884FF4305A35
:102340004FF4285B4FF42C5E2B264FF0F00845F23B
:1023500010594FF448744FF4A07C4FF4F07260B100
:10236000A3F800C0A3F8028049452AD1A3F808A029
:10237000A3F80AB0A3F80CE03AE0A3F80080A3F8B1
:1023800002C0494508D1A3F808A0A3F80AB0A3F8F1
:102390000CE01A805C8002E01F815D819E81A1F5C6
:1023A000A640103803D0A1F5EE40963802D1A3F82C
:1023B00000C05A80A1F5184006381FD11A805C80F1
:1023C0001CE0A1F5C85063380FD0A1F518400638BD
:1023D0000BD01F815D819E81A1F5A64010380AD0E7
:1023E000A1F5EE40963806D008E01F815D819E8100
:1023F0001C805A80F0E71A80A3F802C0BDE8F04FB5
:10240000002002F0D9BC0000280500202DE9FE4F75
:102410000026A2EB000882465F1A701E35468946E8
:10242000B8F1000F02DD4FF0010102E003D14FF0DF
:102430000001019102E0C8F100080190002F02DDC7
:102440004FF0010002E003D14FF00000009002E0E5
:10245000C7F1000700904046B84501DD044600E0A2
:102460003C46601C4FF0000B029015E01FFA89F10A
:102470001FFA8AF000F016F846443D44A64202DDF9
:102480000199361B8A44A54202DD00992D1B89441F
:102490000BF101001FFA80FB02998B45E6DDBDE8D8
:1024A000FE8F000000B502F04BFD02F071FE064801
:1024B000074982880548A2F5EE43893B008801D18F
:1024C000020A0A80088000BD2805002014000020B0
:1024D000000008602DE9FC4F8046002415460320CB
:1024E0000F46A0EB450649E0781B81B208EB040AD1
:1024F00001901FFA8AF0FFF7D5FF381B81B208EB75
:10250000050900901FFA89F0FFF7CCFF07EB040BD9
:102510001FFA8BF11FFA89F0FFF7C4FF07EB0509DB
:102520001FFA89F11FFA8AF0FFF7BCFFA8EB040A33
:102530001FFA89F11FFA8AF0FFF7B4FFA8EB05092B
:102540001FFA8BF11FFA89F0FFF7ACFF019881B2F7
:102550001FFA8AF0FFF7A6FF009881B21FFA89F0F0
:10256000FFF7A0FF641C002E03DA06EB8406B61DFD
:1025700004E0601B06EB80066D1E0A36AC42B3DD3C
:10258000BDE8FC8F2DE9F041234E0C460546070AB5
:10259000B1883046A1F5AA4340894FEA1428103B80
:1025A0001BD002F0E9FD384602F0DAFDE8B202F095
:1025B000D7FDB08902F0E0FD404602F0D1FDE0B267
:1025C00002F0CEFD154930890880B1881348A1F585
:1025D000EE43801C893B19D01AE002F0CDFD38464D
:1025E00002F0BEFD7089401C80B202F0C5FDE8B269
:1025F00002F0B6FDB08902F0BFFD404602F0B0FD2A
:10260000B089401C80B202F0B7FDD8E7110A018002
:102610000280BDE8F081000028050020FEFF076071
:102620002DE9F04FFF4895B00024016841F0080102
:1026300001600068012500F0080013904FF48050FD
:10264000CDE900050320CDE902506946F648FEF7C2
:10265000BDFDE80200906946F348FEF7B7FDF34878
:102660004FF0204105AA0160F149C0E90114102191
:10267000C460C0E9044184610902C461C0E9094140
:102680008900C0E90B4189014463C0E90E410F2074
:10269000CDE90C043C2012940E9008940920CDE959
:1026A0000504082007900CA90B94E048FFF79EF959
:1026B000322007F013FCDF4EC6F8AC520A2006F5B4
:1026C0002B7607F00BFC3460322007F007FC3560F6
:1026D000C82007F003FCD32002F04EFD02F062FB9D
:1026E000D24D5035A88002F05DFB2946888002F06B
:1026F00059FB4FF6FF79294609EA0020888002F04D
:1027000051FB294647F2967A898845F210360843EC
:10271000294645F2105788804FF4704B47F2897470
:10272000504573D0042002F027FD02F03BFBA88047
:1027300002F038FBA88002F035FB09EA00204A4687
:10274000A88002F02FFBA988C0B20843A0F505417C
:10275000A88052397ED0A04258D0D42002F00CFD7F
:1027600002F020FBA88002F01DFBA88002F01AFBFB
:1027700002EA00209046A88002F014FBA9880843D2
:10278000A880B04242D05521584602F00BFDAA2144
:102790004FF2010002F006FD52214FF2020002F05A
:1027A00001FD08214FF2030002F0FCFC01214FF271
:1027B000040002F0F7FC4FF4454002F0DDFC02F0AB
:1027C000F1FA08EA0020A8804CF2015002F0D4FC93
:1027D00002F0E8FAA9880843A880052007F07EFBEC
:1027E000A888B84212D0D32002F0C6FC02F0DAFA70
:1027F000A88002F0D7FAA88002F0D4FA08EA0020F4
:10280000A88002F0CFFAA9880843A880A9888AA0E6
:10281000FDF7D2FDA888D04649F6060A40457DD18D
:10282000F02002F0A9FCC32002F09AFCF02002F094
:10283000A3FC962002F094FC362002F09DFC482078
:1028400002F08EFC3A2002F097FC552002F088FC42
:10285000B42000E0F8E002F08FFC012002F080FCE0
:10286000B62002F089FC802002F07AFC222002F0DF
:1028700077FC3B2002F074FCB72002F07DFCC62000
:1028800002F06EFCC02002F077FC802002F068FCB1
:10289000162002F065FCC12002F06EFC192002F047
:1028A0005FFCC22002F068FCA72002F059FCC520A2
:1028B00002F062FC162002F053FCE82002F05CFCFF
:1028C000402002F04DFC8A2002F04AFC002002F079
:1028D00047FC002002F044FC292002F041FC1920B2
:1028E00002F03EFCA52002F03BFC332002F038FC55
:1028F000E02002F041FCF02002F032FC072002F060
:102900002FFC0D2002F02CFC042002F029FC0520F5
:1029100002F026FC142002F023FC00E096E03620B2
:1029200002F01EFC542002F01BFC4C2002F018FCAC
:10293000382002F015FC132002F012FC142002F0E3
:102940000FFC2E2002F00CFC342002F009FCE120E8
:1029500002F012FCF02002F003FC102002F000FC58
:10296000142002F0FDFB0E2002F0FAFB0C2002F016
:10297000F7FB082002F0F4FB352002F0F1FB4420C5
:1029800002F0EEFB4C2002F0EBFB262002F0E8FB0D
:10299000102002F0E5FB122002F0E2FB2C2002F0F6
:1029A000DFFB322002F0DCFBF02002F0E5FB3C20F4
:1029B00002F0D6FBF02002F0DFFB692002F0D0FB32
:1029C000352002F0D9FB002002F0CAFB212002F0E2
:1029D000D3FB112002F0D0FB782007F07FFA2920EA
:1029E00002F0CAFB322007F079FA2A2002F0C4FB79
:1029F000002002F0B5FB002002F0B2FB012002F043
:102A0000AFFB3F2002F0ACFB2B2002F0B5FB002017
:102A100002F0A6FB002002F0A3FB012002F0A0FBC5
:102A2000DF20F6E030380240000C0240D8040020DD
:102A3000040100A000804142204C43442049443A14
:102A400025780D0A00000000AC80DFE6A0427CD1B2
:102A5000112002F091FB782007F040FA362002F0B6
:102A60008BFB002002F07CFB3A2002F085FB552016
:102A700002F076FBB22002F07FFB0C2002F070FB2C
:102A80000C2002F06DFB002002F06AFB332002F004
:102A900067FB332002F064FBB72002F06DFB562089
:102AA00002F05EFBBB2002F067FB202002F058FB27
:102AB000C02002F061FB2C2002F052FBC22002F089
:102AC0005BFB012002F04CFBC32002F055FB0F2002
:102AD00002F046FBC42002F04FFB202002F040FB36
:102AE000C62002F049FB0F2002F03AFBD02002F092
:102AF00043FBA42002F034FBA12002F031FBD620DE
:102B000002F03AFBA12002F02BFBE02002F034FBA4
:102B1000F02002F025FB002002F022FB062002F04C
:102B20001FFB062002F01CFB072002F019FB05200A
:102B300002F016FB302002F013FB442002F010FBE1
:102B4000482002F00DFB382000E067E002F008FBAF
:102B5000112002F005FB102002F002FB2E2002F0F3
:102B6000FFFA342002F0FCFAE12002F005FBF0202D
:102B700002F0F6FA0A2002F0F3FA0E2002F0F0FA60
:102B80000D2002F0EDFA0B2002F0EAFA272002F005
:102B9000E7FA2F2002F0E4FA442002F0E1FA47209D
:102BA00002F0DEFA352002F0DBFA122002F0D8FA49
:102BB000122002F0D5FA2C2002F0D2FA322002F0D4
:102BC000CFFA352002F0D8FA002002F0C9FA21200D
:102BD00002F0D2FA292002F0CFFA2A2002F0CCFA31
:102BE000002002F0BDFA002002F0BAFA012002F043
:102BF000B7FA3F2002F0B4FA2B2002F0BDFA002011
:102C000002F0AEFA002002F0ABFA002002F0A8FABF
:102C1000EF2002F0A5FA2C2002F080B8B0427CD15F
:102C2000ED2002F0A9FA012002F09AFAFE2002F04B
:102C300097FAEE2002F0A0FADE2002F091FA2120AD
:102C400002F08EFAF12002F097FA012002F088FAE1
:102C5000DF2002F091FA102002F082FAC42002F084
:102C60008BFA8F2002F07CFAC62002F085FA002051
:102C700002F076FAE22002F073FAE22002F070FA33
:102C8000E22002F06DFABF2002F076FAAA2002F0EC
:102C900067FAB02002F070FA0D2002F061FA00200D
:102CA00002F05EFA0D2002F05BFA002002F058FA02
:102CB000112002F055FA002002F052FA192002F019
:102CC0004FFA002002F04CFA212002F049FA0020CD
:102CD00002F046FA2D2002F043FA002002F040FAFA
:102CE0003D2002F03DFA002002F03AFA5D2002F0A9
:102CF00037FA002002F034FA5D2002F031FA0020A9
:102D000002F02EFAB12002F037FA802002F028FA01
:102D1000002002F025FA8B2000E0FCE302F020FA0C
:102D2000002002F01DFA962002F01AFA002002F0AC
:102D300017FAB22002F020FA002002F011FA002067
:102D400002F00EFA022002F00BFA002002F008FA5C
:102D5000032002F005FA002002F002FAB32002F08C
:102D60000BFA002002F0FCF9002002F0F9F9002033
:102D700002F0F6F9002002F0F3F9002002F0F0F979
:102D8000002002F0EDF9002002F0EAF9002002F044
:102D9000E7F9002002F0E4F9002002F0E1F9002058
:102DA00002F0DEF9002002F0DBF9002002F0D8F991
:102DB000002002F0D5F9002002F0D2F9002002F044
:102DC000CFF9002002F0CCF9002002F0C9F9002070
:102DD00002F0C6F9002002F0C3F9002002F0C0F9A9
:102DE000002002F0BDF9002002F0BAF9002002F044
:102DF000B7F9B42002F0C0F98B2002F0B1F900203D
:102E000002F0AEF9962002F0ABF9002002F0A8F92A
:102E1000A12002F0A5F9002002F0A2F9B52002F0ED
:102E2000ABF9022002F09CF9002002F099F903208E
:102E300002F096F9002002F093F9042002F090F9D4
:102E4000002002F08DF9B62002F096F9002002F081
:102E500087F9002002F084F9B72002F08DF90020F4
:102E600002F07EF9002002F07BF93F2002F078F9B1
:102E7000002002F075F95E2002F072F9002002F0E5
:102E80006FF9642002F06CF9002002F069F98C20DF
:102E900002F066F9002002F063F9AC2002F060F95C
:102EA000002002F05DF9DC2002F05AF9002002F067
:102EB00057F9702002F054F9002002F051F99020E7
:102EC00002F04EF9002002F04BF9EB2002F048F935
:102ED000002002F045F9DC2002F042F9002002F067
:102EE0003FF9B82002F048F9002002F039F900203B
:102EF00002F036F9002002F033F9002002F030F938
:102F0000002002F02DF9002002F02AF9002002F042
:102F100027F9002002F024F9BA2002F02DF924202C
:102F200002F01EF9002002F01BF9002002F018F94F
:102F3000002002F015F9C12002F01EF9202002F055
:102F40000FF9002002F00CF9542002F009F90020DA
:102F500002F006F9FF2002F003F9002002F000F968
:102F6000C22002F009F90A2002F0FAF8002002F06B
:102F7000F7F8042002F0F4F8002002F0F1F8C32082
:102F800002F0FAF83C2002F0EBF8002002F0E8F83A
:102F90003A2002F0E5F8002002F0E2F8392002F0D1
:102FA000DFF8002002F0DCF8372002F0D9F800202A
:102FB00002F0D6F83C2002F0D3F8002002F0D0F85E
:102FC000362002F0CDF8002002F0CAF8322002F0DC
:102FD000C7F8002002F0C4F82F2002F0C1F800204A
:102FE00002F0BEF82C2002F0BBF8002002F0B8F886
:102FF000292002F0B5F8002002F0B2F8262002F0F5
:10300000AFF8002002F0ACF8242002F0A9F800206C
:1030100002F0A6F8242002F0A3F8002002F0A0F8A5
:10302000232002F09DF8002002F09AF83C2002F0E4
:1030300097F8002002F094F8362002F091F8002072
:1030400002F08EF8322002F08BF8002002F088F8AF
:103050002F2002F085F8002002F082F82C2002F0E8
:103060007FF8002002F07CF8292002F079F8002097
:1030700002F076F8262002F073F8002002F070F8D3
:10308000242002F06DF8002002F06AF8242002F0FB
:1030900067F8002002F064F8232002F061F80020B5
:1030A00002F05EF8C42002F067F8622002F058F8DF
:1030B000002002F055F8052002F052F8002002F03E
:1030C0004FF8842002F04CF8002002F049F8F0207C
:1030D00002F046F8002002F043F8182002F040F811
:1030E000002002F03DF8A42002F03AF8002002F09F
:1030F00037F8182002F034F8002002F031F85020A0
:1031000002F02EF8002002F02BF80C2002F028F834
:10311000002002F025F8172002F022F8002002F02B
:103120001FF8952002F01CF8002002F019F8F32097
:1031300002F016F8002002F013F8E62002F010F872
:10314000002002F00DF8C52002F016F8322002F03F
:1031500007F8002002F004F8442002F001F80020F3
:1031600001F0FEFF652001F0FBFF002001F0F8FFF9
:10317000762001F0F5FF002001F0F2FF882001F039
:10318000EFFF002001F0ECFFC62001F0F5FF20204A
:1031900001F0E6FF002001F0E3FF172001F0E0FF5F
:1031A000002001F0DDFF012001F0DAFF002001F036
:1031B000D7FFC72001F0E0FF002001F0D1FF002081
:1031C00001F0CEFF002001F0CBFF002001F0C8FF8E
:1031D000C82001F0D1FF002001F0C2FF002001F063
:1031E000BFFF002001F0BCFF002001F0B9FFC920A3
:1031F00001F0C2FF002001F0B3FF002001F0B0FF9A
:10320000002001F0ADFF002001F0AAFF002001F036
:10321000A7FF002001F0A4FF002001F0A1FF002083
:1032200001F09EFF002001F09BFF002001F098FFBD
:10323000002001F095FF002001F092FF002001F036
:103240008FFF002001F08CFF002001F089FF00209B
:1032500001F086FFE02001F08FFF162001F080FFD3
:10326000002001F07DFF1C2001F07AFF002001F01A
:1032700077FF212001F074FF002001F071FF36205C
:1032800001F06EFF002001F06BFF462001F068FFA7
:10329000002001F065FF522001F062FF002001F0E4
:1032A0005FFF642001F05CFF002001F059FF7A20ED
:1032B00001F056FF002001F053FF8B2001F050FF7A
:1032C000002001F04DFF992001F04AFF002001F09D
:1032D00047FFA82001F044FF002001F041FFB92082
:1032E00001F03EFF002001F03BFFC42001F038FF59
:1032F000002001F035FFCA2001F032FF002001F06C
:103300002FFFD22001F02CFF002001F029FFD9204F
:1033100001F026FF002001F023FFE02001F020FF54
:10332000002001F01DFFF32001F01AFF002001F042
:1033300017FFE12001F020FF162001F011FF00200F
:1033400001F00EFF1C2001F00BFF002001F008FF30
:10335000222001F005FF002001F002FF362001F0DD
:10336000FFFE002001F0FCFE452001F0F9FE0020E8
:1033700001F0F6FE522001F0F3FE002001F0F0FE15
:10338000642001F0EDFE002001F0EAFE7A2001F059
:10339000E7FE002001F0E4FE8B2001F0E1FE0020BA
:1033A00001F0DEFE992001F0DBFE002001F0D8FEE6
:1033B000A82001F0D5FE002001F0D2FEB92001F0D6
:1033C000CFFE002001F0CCFEC42001F0C9FE002099
:1033D00001F0C6FECA2001F0C3FE002001F0C0FECD
:1033E000D22001F0BDFE002001F0BAFED82001F08D
:1033F000B7FE002001F0B4FEE02001F0B1FE002095
:1034000001F0AEFEF32001F0ABFE002001F0A8FEBB
:10341000E22001F0B1FE052001F0A2FE002001F043
:103420009FFE0B2001F09CFE002001F099FE1B2066
:1034300001F096FE002001F093FE342001F090FE92
:10344000002001F08DFE442001F08AFE002001F0F2
:1034500087FE4F2001F084FE002001F081FE6120F4
:1034600001F07EFE002001F07BFE792001F078FE65
:10347000002001F075FE882001F072FE002001F0AE
:103480006FFE972001F06CFE002001F069FEA6207F
:1034900001F066FE002001F063FEB72001F060FE3F
:1034A000002001F05DFEC22001F05AFE002001F074
:1034B00057FEC72001F054FE002001F051FED1203C
:1034C00001F04EFE002001F04BFED62001F048FE38
:1034D000002001F045FEDD2001F042FE002001F059
:1034E0003FFEF32001F03CFE002001F039FEE32016
:1034F00001F042FE052001F033FE002001F030FE15
:103500000A2001F02DFE002001F02AFE1C2001F00F
:1035100027FE002000E0FBE201F022FE332001F054
:103520001FFE002001F01CFE442001F019FE0020C7
:1035300001F016FE502001F013FE002001F010FEF5
:10354000622001F00DFE002001F00AFE782001F05B
:1035500007FE002001F004FE882001F001FE00209B
:1035600001F0FEFD972001F0FBFD002001F0F8FDC9
:10357000A62001F0F5FD002001F0F2FDB72001F0DA
:10358000EFFD002001F0ECFDC22001F0E9FD00207C
:1035900001F0E6FDC72001F0E3FD002001F0E0FDB1
:1035A000D12001F0DDFD002001F0DAFDD52001F091
:1035B000D7FD002001F0D4FDDD2001F0D1FD002079
:1035C00001F0CEFDF32001F0CBFD002001F0C8FD9D
:1035D000E42001F0D1FD012001F0C2FD002001F046
:1035E000BFFD012001F0BCFD002001F0B9FD02206B
:1035F00001F0B6FD002001F0B3FD2A2001F0B0FD7E
:10360000002001F0ADFD3C2001F0AAFD002001F0FA
:10361000A7FD4B2001F0A4FD002001F0A1FD5D20DD
:1036200001F09EFD002001F09BFD742001F098FD4B
:10363000002001F095FD842001F092FD002001F0B2
:103640008FFD932001F08CFD002001F089FDA22068
:1036500001F086FD002001F083FDB32001F080FD24
:10366000002001F07DFDBE2001F07AFD002001F078
:1036700077FDC42001F074FD002001F071FDCD2024
:1036800001F06EFD002001F06BFDD32001F068FD1C
:10369000002001F065FDDD2001F062FD002001F059
:1036A0005FFDF32001F05CFD002001F059FDE520F5
:1036B00001F062FD002001F053FD002001F050FDFB
:1036C000002001F04DFD002001F04AFD022001F034
:1036D00047FD002001F044FD292001F041FD0020BC
:1036E00001F03EFD3C2001F03BFD002001F038FDE3
:1036F0004B2001F035FD002001F032FD5D2001F08E
:103700002FFD002001F02CFD742001F029FD002088
:1037100001F026FD842001F023FD002001F020FDB2
:10372000932001F01DFD002001F01AFDA22001F000
:1037300017FD002001F014FDB32001F011FD002061
:1037400001F00EFDBE2001F00BFD002001F008FD90
:10375000C42001F005FD002001F002FDCD2001F0A4
:10376000FFFC002001F0FCFCD32001F0F9FC00205C
:1037700001F0F6FCDC2001F0F3FC002001F0F0FC8D
:10378000F32001F0EDFC002001F0EAFCE62001F05E
:10379000F3FC112001F0E4FC002001F0E1FC3420F6
:1037A00001F0DEFC002001F0DBFC562001F0D8FC2B
:1037B000002001F0D5FC762001F0D2FC002001F0C1
:1037C000CFFC772001F0CCFC002001F0C9FC662082
:1037D00001F0C6FC002001F0C3FC882001F0C0FC11
:1037E000002001F0BDFC992001F0BAFC002001F09E
:1037F000B7FCBB2001F0B4FC002001F0B1FC992023
:1038000001F0AEFC002001F0ABFC662001F0A8FC4A
:10381000002001F0A5FC552001F0A2FC002001F0E1
:103820009FFC552001F09CFC002001F099FC4520F4
:1038300001F096FC002001F093FC432001F090FC85
:10384000002001F08DFC442001F08AFC002001F0F2
:1038500087FCE72001F090FC322001F081FC002081
:1038600001F07EFC552001F07BFC002001F078FC8B
:10387000762001F075FC002001F072FC662001F05A
:103880006FFC002001F06CFC672001F069FC002057
:1038900001F066FC672001F063FC002001F060FC91
:1038A000872001F05DFC002001F05AFC992001F016
:1038B00057FC002001F054FCBB2001F051FC00201B
:1038C00001F04EFC992001F04BFC002001F048FC77
:1038D000772001F045FC002001F042FC442001F07B
:1038E0003FFC002001F03CFC562001F039FC002098
:1038F00001F036FC232001F033FC002001F030FC05
:10390000332001F02DFC002001F02AFC452001F0BD
:1039100027FC002001F024FCE82001F02DFC002011
:1039200001F01EFC002001F01BFC992001F018FCA6
:10393000002001F015FC872001F012FC002001F0AE
:103940000FFC882001F00CFC002001F009FC77201E
:1039500001F006FC002001F003FC662001F000FCF1
:10396000002001F0FDFB882001F0FAFB002001F0AF
:10397000F7FBAA2001F0F4FB002001F0F1FBBB20D3
:1039800001F0EEFB002001F0EBFB992001F0E8FBD9
:10399000002001F0E5FB662001F0E2FB002001F0D1
:1039A000DFFB552001F0DCFB002001F0D9FB5520A6
:1039B00001F0D6FB002001F0D3FB442001F0D0FB46
:1039C000002001F0CDFB442001F0CAFB002001F0F3
:1039D000C7FB552001F0C4FB002001F0C1FBE9202A
:1039E00001F0CAFBAA2001F0BBFB002001F0B8FBEC
:1039F000002001F0B5FB002001F0B2FB002001F037
:103A0000BBFBAA2001F0ACFBCF2001F0B5FB0020EE
:103A100001F0A6FB002001F0A3FB002001F0A0FBB9
:103A2000002001F09DFB002001F09AFB002001F036
:103A300097FB002001F094FB002001F091FB002097
:103A400001F08EFB002001F08BFB002001F088FBD1
:103A5000002001F085FB002001F082FB002001F036
:103A60007FFB002001F07CFB002001F079FB0020AF
:103A700001F076FBF02001F07FFB002001F070FBED
:103A8000502001F06DFB002001F06AFB002001F0E6
:103A900067FB002001F064FBF32001F06DFB0020C8
:103AA00001F05EFBF92001F067FB062001F058FBF6
:103AB000102001F055FB292001F052FB002001F0FD
:103AC0004FFB3A2001F058FB552001F049FB112033
:103AD00001F052FB642006F001FA292001F04CFBB2
:103AE000352001F049FB002001F03AFB512001F0A4
:103AF00043FBFF2001F034FB532001F03DFB2C2061
:103B000001F02EFB552001F037FB8220FFF781B832
:103B1000B8427DD155214FF4704001F043FBAA21FA
:103B20004FF2010001F03EFB52214FF2020001F082
:103B300039FB4FF2030B0821584601F033FB4FF2DB
:103B400004030121184601F02DFB0D214FF43040F4
:103B500001F028FB0D214BF2010001F023FB0D21A8
:103B60004BF2020001F01EFB34214FF4364001F00D
:103B700019FB34214BF2016001F014FB34214BF2AC
:103B8000026001F00FFB0D214FF4314001F00AFB00
:103B90000D214BF2011001F005FB0D214BF202103B
:103BA00001F000FB34214FF4374001F0FBFA3421DF
:103BB0004BF2017001F0F6FA34214BF2027001F081
:103BC000F1FA00214FF4324001F0ECFA00214BF2FF
:103BD000012001F0E7FA00214BF2022001F0E2FAA5
:103BE00024214FF4384001F0DDFA24214BF6010086
:103BF00001F0D8FA24214BF6020001F0D3FA01219A
:103C00004FF43F4001F0CEFA0F214FF4334000E073
:103C1000FEE301F0C7FA0F214BF2013001F0C2FAC6
:103C20000F214BF2023001F0BDFA34214FF439403C
:103C300001F0B8FA34214BF6011001F0B3FA342147
:103C40004BF6021001F0AEFA08214FF4354001F0B6
:103C5000A9FA08214BF2015001F0A4FA08214BF215
:103C6000025001F09FFA03214FF4424001F09AFA0A
:103C700024214FF43A4001F095FA24214BF601201B
:103C800001F090FA24214BF6022001F08BFA00217A
:103C90004FF43C4001F086FA78214BF6014001F0E8
:103CA00081FA00214BF6024001F07CFA00214FF42A
:103CB0003D4001F077FA78214BF6015001F072FA9D
:103CC00000214BF6025001F06DFA00214FF43E4006
:103CD00001F068FA64214BF6016001F063FA0021FB
:103CE0004FF4514001F05EFA33214DF2011001F022
:103CF00059FA00214DF2021001F054FA34214DF22C
:103D0000031001F04FFA00214DF2041001F04AFABD
:103D10003A214DF2051001F045FA00214DF206104E
:103D200001F040FA4A214DF2071001F03BFA002160
:103D30004DF2081001F036FA5C214DF2091001F045
:103D400031FA00214DF20A1001F02CFA81214DF2D6
:103D50000B1001F027FA00214DF20C1001F022FAAD
:103D6000A6214DF20D1001F01DFA00214DF20E10AA
:103D700001F018FAE5214DF20F1001F013FA0121BC
:103D80004DF2101001F00EFA13214DF2111001F056
:103D900009FA01214DF2121001F004FA54214DF2FA
:103DA000131001F0FFF901214DF2141001F0FAF99E
:103DB00082214DF2151001F0F5F901214DF2161096
:103DC00001F0F0F9CA214DF2171001F0EBF90221D0
:103DD0004DF2181001F0E6F900214DF2191001F032
:103DE000E1F902214DF21A1001F0DCF901214DF246
:103DF0001B1001F0D7F902214DF21C1001F0D2F98D
:103E000034214DF21D1001F0CDF902214DF21E10AA
:103E100001F0C8F967214DF21F1001F0C3F902212A
:103E20004DF2201001F0BEF984214DF2211001F075
:103E3000B9F902214DF2221001F0B4F9A4214DF29A
:103E4000231001F0AFF902214DF2241001F0AAF97C
:103E5000B7214DF2251001F0A5F902214DF22610EF
:103E600001F0A0F9CF214DF2271001F09BF90221BA
:103E70004DF2281001F096F9DE214DF2291001F0E3
:103E800091F902214DF22A1001F08CF9F2214DF244
:103E90002B1001F087F902214DF22C1001F082F96C
:103EA000FE214DF22D1001F07DF903214DF22E106F
:103EB00001F078F910214DF22F1001F073F9032170
:103EC0004DF2301001F06EF933214DF2311001F056
:103ED00069F903214DF2321001F064F96D214DF2C0
:103EE000331001F05FF900214FF4524001F05AF90C
:103EF00033214DF2012001F055F900214DF202204D
:103F000001F050F934214DF2032001F04BF900216A
:103F10004DF2042001F046F93A214DF2052001F05E
:103F200041F900214DF2062001F03CF94A214DF201
:103F3000072001F037F900214DF2082001F032F995
:103F40005C214DF2092001F02DF900214DF20A20EB
:103F500001F028F981214DF20B2001F023F9002115
:103F60004DF20C2001F01EF9A6214DF20D2001F0BA
:103F700019F900214DF20E2001F014F9E5214DF25E
:103F80000F2001F00FF901214DF2102001F00AF984
:103F900013214DF2112001F005F901214DF21220FB
:103FA00001F000F954214DF2132001F0FBF801213A
:103FB0004DF2142001F0F6F882214DF2152001F0A7
:103FC000F1F801214DF2162001F0ECF8CA214DF272
:103FD000172001F0E7F802214DF2182001F0E2F875
:103FE00000214DF2192001F0DDF802214DF21A20D6
:103FF00001F0D8F801214DF21B2001F0D3F8022185
:104000004DF21C2001F0CEF834214DF21D2001F0BC
:10401000C9F802214DF21E2001F0C4F867214DF2CB
:104020001F2001F0BFF802214DF2202001F0BAF864
:1040300084214DF2212001F0B5F802214DF2222019
:1040400001F0B0F8A4214DF2232001F0ABF80221D9
:104050004DF2242001F0A6F8B7214DF2252001F001
:10406000A1F802214DF2262001F09CF8CF214DF25B
:10407000272001F097F802214DF2282001F092F854
:10408000DE214DF2292001F08DF802214DF22A2087
:1040900001F088F8F2214DF22B2001F083F8022183
:1040A0004DF22C2001F07EF8FE214DF22D2001F082
:1040B00079F803214DF22E2001F074F810214DF211
:1040C0002F2001F06FF803214DF2302001F06AF843
:1040D00033214DF2312001F065F803214DF23220F9
:1040E00001F060F86D214DF2332001F05BF8002102
:1040F0004FF4534001F056F833214DF2013001F0F6
:1041000051F800214DF2023001F04CF834214DF20B
:10411000033001F047F800214DF2043001F042F87D
:104120003A214DF2053001F03DF800214DF2063004
:1041300001F038F84A214DF2073001F033F8002140
:104140004DF2083001F02EF85C214DF2093001F0FB
:1041500029F800214DF20A3001F024F881214DF2B6
:104160000B3001F01FF800214DF20C3001F01AF86D
:10417000A6214DF20D3001F015F800214DF20E3060
:1041800001F010F8E5214DF20F3001F00BF801219C
:104190004DF2103001F006F813214DF2113001F00C
:1041A00001F801214DF2123000F0FCFF54214DF2D4
:1041B000133000F0F7FF01214DF2143000F0F2FF50
:1041C00082214DF2153000F0EDFF01214DF2163045
:1041D00000F0E8FFCA214DF2173000F0E3FF0221A2
:1041E0004DF2183000F0DEFF00214DF2193000F0E2
:1041F000D9FF02214DF21A3000F0D4FF01214DF217
:104200001B3000F0CFFF02214DF21C3000F0CAFF3E
:1042100034214DF21D3000F0C5FF02214DF21E3059
:1042200000F0C0FF67214DF21F3000F0BBFF0221FC
:104230004DF2203000F0B6FF84214DF2213000F025
:10424000B1FF02214DF2223000F0ACFFA4214DF26B
:10425000233000F0A7FF02214DF2243000F0A2FF2E
:10426000B7214DF2253000F09DFF02214DF226309E
:1042700000F098FFCF214DF2273000F093FF02218C
:104280004DF2283000F08EFFDE214DF2293000F093
:1042900089FF02214DF22A3000F084FFF2214DF215
:1042A0002B3000F07FFF02214DF22C3000F07AFF1E
:1042B000FE214DF22D3000F075FF03214DF22E301E
:1042C00000F070FF10214DF22F3000F06BFF032142
:1042D0004DF2303000F066FF33214DF2313000F006
:1042E00061FF03214DF2323000F05CFF6D214DF291
:1042F000333000F057FF00214FF4544000F052FFDC
:1043000033214DF2014000F04DFF00214DF20240FB
:1043100000F048FF34214DF2034000F043FF00213C
:104320004DF2044000F03EFF3A214DF2054000F00E
:1043300039FF00214DF2064000F034FF4A214DF2D2
:10434000074000F02FFF00214DF2084000F02AFF47
:104350005C214DF2094000F025FF00214DF20A409A
:1043600000F020FF81214DF20B4000F01BFF0021E7
:104370004DF20C4000F016FFA6214DF20D4000F06A
:1043800011FF00214DF20E4000F00CFFE5214DF22F
:104390000F4000F007FF01214DF2104000F002FF36
:1043A00013214DF2114000F0FDFE01214DF21240AB
:1043B00000F0F8FE54214DF2134000F0F3FE01210D
:1043C0004DF2144000F0EEFE82214DF2154000F057
:1043D000E9FE01214DF2164000F0E4FECA214DF243
:1043E000174000F0DFFE02214DF2184000F0DAFE27
:1043F00000214DF2194000F0D5FE02214DF21A4085
:1044000000F0D0FE01214DF21B4000F0CBFE00E099
:10441000FFE202214DF21C4000F0C4FE34214DF2B7
:104420001D4000F0BFFE02214DF21E4000F0BAFE1A
:1044300067214DF21F4000F0B5FE02214DF22040F1
:1044400000F0B0FE84214DF2214000F0ABFE0221CD
:104450004DF2224000F0A6FEA4214DF2234000F0D0
:10446000A1FE02214DF2244000F09CFEB7214DF246
:10447000254000F097FE02214DF2264000F092FE0A
:10448000CF214DF2274000F08DFE02214DF2284051
:1044900000F088FEDE214DF2294000F083FE02216B
:1044A0004DF22A4000F07EFEF2214DF22B4000F04A
:1044B00079FE02214DF22C4000F074FEFE214DF2F7
:1044C0002D4000F06FFE03214DF22E4000F06AFEF9
:1044D00010214DF22F4000F065FE03214DF23040D7
:1044E00000F060FE33214DF2314000F05BFE03210D
:1044F0004DF2324000F056FE6D214DF2334000F097
:1045000051FE00214FF4554000F04CFE33214DF296
:10451000015000F047FE00214DF2025000F042FE33
:1045200034214DF2035000F03DFE00214DF20450C5
:1045300000F038FE3A214DF2055000F033FE002124
:104540004DF2065000F02EFE4A214DF2075000F0C9
:1045500029FE00214DF2085000F024FE5C214DF2AE
:10456000095000F01FFE00214DF20A5000F01AFE23
:1045700081214DF20B5000F015FE00214DF20C5040
:1045800000F010FEA6214DF20D5000F00BFE0021B0
:104590004DF20E5000F006FEE5214DF20F5000F0F6
:1045A00001FE01214DF2105000F0FCFD13214DF2EF
:1045B000115000F0F7FD01214DF2125000F0F2FD14
:1045C00054214DF2135000F0EDFD01214DF2145035
:1045D00000F0E8FD82214DF2155000F0E3FD0121CD
:1045E0004DF2165000F0DEFDCA214DF2175000F0DA
:1045F000D9FD02214DF2185000F0D4FD00214DF2FA
:10460000195000F0CFFD02214DF21A5000F0CAFD02
:1046100001214DF21B5000F0C5FD02214DF21C504E
:1046200000F0C0FD34214DF21D5000F0BBFD022111
:104630004DF21E5000F0B6FD67214DF21F5000F004
:10464000B1FD02214DF2205000F0ACFD84214DF26D
:10465000215000F0A7FD02214DF2225000F0A2FDF2
:10466000A4214DF2235000F09DFD02214DF2245073
:1046700000F098FDB7214DF2255000F093FD022186
:104680004DF2265000F08EFDCF214DF2275000F064
:1046900089FD02214DF2285000F084FDDE214DF20B
:1046A000295000F07FFD02214DF22A5000F07AFDE2
:1046B000F2214DF22B5000F075FD02214DF22C50ED
:1046C00000F070FDFE214DF22D5000F06BFD032136
:1046D0004DF22E5000F066FD10214DF22F5000F0EB
:1046E00061FD03214DF2305000F05CFD33214DF2AD
:1046F000315000F057FD03214DF2325000F052FDD1
:104700006D214DF2335000F04DFD00214FF4564025
:1047100000F048FD33214DF2016000F043FD00211F
:104720004DF2026000F03EFD34214DF2036000F0D6
:1047300039FD00214DF2046000F034FD3A214DF2C4
:10474000056000F02FFD00214DF2066000F02AFD0B
:104750004A214DF2076000F025FD00214DF208606E
:1047600000F020FD5C214DF2096000F01BFD0021EE
:104770004DF20A6000F016FD81214DF20B6000F051
:1047800011FD00214DF20C6000F00CFDA6214DF250
:104790000D6000F007FD00214DF20E6000F002FDFB
:1047A000E5214DF20F6000F0FDFC01214DF210609B
:1047B00000F0F8FC13214DF2116000F0F3FC012130
:1047C0004DF2126000F0EEFC54214DF2136000F047
:1047D000E9FC01214DF2146000F0E4FC82214DF26D
:1047E000156000F0DFFC01214DF2166000F0DAFCEC
:1047F000CA214DF2176000F0D5FC02214DF218607D
:1048000000F0D0FC00214DF2196000F0CBFC022139
:104810004DF21A6000F0C6FC01214DF21B6000F061
:10482000C1FC02214DF21C6000F0BCFC34214DF2B1
:104830001D6000F0B7FC02214DF21E6000F0B2FCDA
:1048400067214DF21F6000F0ADFC02214DF22060A7
:1048500000F0A8FC84214DF2216000F0A3FC0221AD
:104860004DF2226000F09EFCA4214DF2236000F086
:1048700099FC02214DF2246000F094FCB7214DF226
:10488000256000F08FFC02214DF2266000F08AFCCA
:10489000CF214DF2276000F085FC02214DF2286007
:1048A00000F080FCDE214DF2296000F07BFC02214B
:1048B0004DF22A6000F076FCF2214DF22B6000F000
:1048C00071FC02214DF22C6000F06CFCFE214DF2D7
:1048D0002D6000F067FC03214DF22E6000F062FCB9
:1048E00010214DF22F6000F05DFC03214DF230608D
:1048F00000F058FC33214DF2316000F053FC0321ED
:104900004DF2326000F04EFC6D214DF2336000F04C
:1049100049FC55214FF4704000F044FCAA214FF2AD
:10492000010000F03FFC52214FF2020000F03AFC7F
:104930000821584600F036FC0021184600F032FCF1
:10494000CC214FF4314000F02DFC00214BF201103E
:1049500000F028FC05214FF4364000F023FC7021C4
:104960004FF4374000F01EFC70214BF2017000F054
:1049700019FC01214FF4384000F014FC03214BF6E0
:10498000010000F00FFC03214BF6020000F00AFCCE
:1049900003214BF6030000F005FC02214FF43C40DC
:1049A00000F000FC00214BF6014000F0FBFB002171
:1049B0004BF6024000F0F6FBD0214FF4494000F0E6
:1049C000F1FB02214CF6011000F0ECFB50214CF6FB
:1049D000021000F0E7FB50214CF6031000F0E2FB60
:1049E00050214CF6041000F0DDFB00214FF4545030
:1049F00000F0D8FB55214FF4685000F0D3FB4FF482
:104A0000885000F0B9FB782005F076FA4FF4245076
:104A100084E150457ED1FF2000F0AEFBFF2000F086
:104A20009FFB982000F09CFB062000F099FBBA2029
:104A300000F0A2FB602000F093FBBC2000F09CFB88
:104A4000012000F08DFB0E2000F08AFB612000F0B9
:104A500087FBFB2000F084FB102000F081FB10207E
:104A600000F07EFB0B2000F07BFB0F2000F078FBBA
:104A70002E2000F075FB732000F072FBFF2000F089
:104A80006FFBFF2000F06CFB0E2000F069FB0E2096
:104A900000F066FB002000F063FB032000F060FBE9
:104AA000662000F05DFB632000F05AFB012000F05F
:104AB00057FB002000F054FB002000F051FBBD200C
:104AC00000F05AFB012000F04BFB232000F048FBD4
:104AD000452000F045FB672000F042FB012000F07C
:104AE0003FFB232000F03CFB452000F039FB672012
:104AF00000F036FBBE2000F03FFB002000F030FB52
:104B0000212000F02DFBAB2000F02AFB602000F0FC
:104B100027FB00E004E1222000F022FB222000F02D
:104B20001FFB222000F01CFB222000F019FB22209A
:104B300000F016FBC72000F01FFB6F2000F010FBF9
:104B4000ED2000F019FB7F2000F00AFB0F2000F0A1
:104B500007FB002000F004FBC02000F00DFB372015
:104B600000F0FEFA0B2000F0FBFA0A2000F0F8FA41
:104B7000FC2000F001FB0A2000F0F2FADF2000F038
:104B8000FBFA002000F0ECFA002000F0E9FA002027
:104B900000F0E6FA002000F0E3FA002000F0E0FA6E
:104BA000202000F0DDFAF32000F0E6FA742000F097
:104BB000D7FAB42000F0E0FA002000F0D1FA00208B
:104BC00000F0CEFA002000F0CBFAF72000F0D4FA83
:104BD000822000F0C5FAB12000F0CEFA002000F0EB
:104BE000BFFA122000F0BCFA132000F0B9FAF2204C
:104BF00000F0C2FA802000F0B3FA5B2000F0B0FAB7
:104C0000402000F0ADFA282000F0AAFAC12000F000
:104C1000B3FA172000F0A4FA7D2000F0A1FA7A2060
:104C200000F09EFA202000F09BFAE02000F0A4FAA9
:104C3000002000F095FA112000F092FA1C2000F0FC
:104C40008FFA0E2000F08CFA0F2000F089FA0C2069
:104C500000F086FAC72000F083FA062000F080FA00
:104C6000062000F07DFA0A2000F07AFA102000F009
:104C700077FA122000F074FA0A2000F071FA10207E
:104C800000F06EFA022000F06BFA002000F068FAE3
:104C9000E12000F071FA002000F062FA122000F02A
:104CA0005FFA182000F05CFA0C2000F059FA0F208F
:104CB00000F056FA0A2000F053FA772000F050FA7C
:104CC000062000F04DFA072000F04AFA0A2000F012
:104CD00047FA0E2000F044FA0B2000F041FA1020B1
:104CE00000F03EFA1D2000F03BFA172000F038FAE1
:104CF000002000F035FA352000F03EFA002000F0E8
:104D00002FFA3A2000F038FA552000F029FA112045
:104D100000F032FA782005F0E1F8292000F02CFAB2
:104D2000A888404507D0A04205D0B04203D0B84281
:104D300001D050451ED14FF02041D1F8042122F07E
:104D40000F02C1F80421D1F8042122F47062C1F8E5
:104D50000421D1F8042142F00302C1F80421A04249
:104D6000D1F8040102D140F4806001E040F4007009
:104D7000C1F804010020FDF7D9FA05490120C1F866
:104D8000B0024846FDF778FA15B0BDE8F08F000094
:104D9000008041420346012000E05843491EC9B249
:104DA000FBD27047034808B50088ADF80000BDF895
:104DB000000008BD0000086030B5604C0023A179F8
:104DC000012916D1082814D2DFE800F00406080AE9
:104DD0000C0E101206200CE007200AE0042008E068
:104DE000052006E0012004E0002002E0032000E0AE
:104DF0000220082812D2DFE800F0110406080A0C8D
:104E00000E1080230AE0402308E0C02306E02023A0
:104E100004E0602302E0A02300E0E023A18845F243
:104E20001055A94202D14FF4585000E03620A1F5A8
:104E3000EE42963A01D143F00803194600F0B2F968
:104E4000980606D520886188884208D22180608033
:104E500005E021886088814201D920806180A08896
:104E6000A842608940D100F087F9002000F078F96D
:104E70006089401C80B200F07FF9002000F070F9DA
:104E80006089801C80B200F077F92088401EC0F352
:104E90000F2000F065F96089C01C80B200F06CF949
:104EA0002078401EC0B200F05BF9A08900F064F9E0
:104EB000002000F055F9A089401C80B200F05CF998
:104EC000002000F04DF9A089801C80B200F054F958
:104ED0006088401EC0F30F2000F042F9A089C01C7A
:104EE00080B200F049F921E000F046F9002000F01E
:104EF00037F9002000F034F92088401EC0F30F205D
:104F000000F02EF92078401EC0B200F029F9A089E7
:104F100000F032F9002000F023F9002000F020F921
:104F20006088401EC0F30F2000F01AF9A078BDE899
:104F30003040401EC0B200F013B900002805002028
:104F4000F0B51C4D0A460446060AA9882846170AE9
:104F50004089A1F5AA43103B12D000F00DF930466C
:104F600000F0FEF8E0B200F0FBF8A88900F004F9C8
:104F7000384600F0F5F8BDE8F040D0B200F0F0B8E7
:104F800000F0FAF8304600F0EBF86889401C80B277
:104F900000F0F2F8E0B200F0E3F8A88900F0ECF8D5
:104FA000384600F0DDF8A889401C80B200F0E4F833
:104FB000E1E70000280500202DE9F84F82461F4652
:104FC0000E468B46580700D0012000EBD700790829
:104FD00010FB01F0203AC0B202F0FF09002500905A
:104FE00047E00C2F10D0102F12D0182F14D0202FE4
:104FF00042D1224901EBC9104FF00008445D200660
:1050000010D51F48028811E009EB49001D4906E050
:105010001D4901EB0910EFE71C4909EBC90001EB41
:105020008000E9E70A9828B9154842883146504679
:10503000FDF7A8FA6006040E1548761CB6B2408843
:10504000B04219D9A6EB0B00B84209D10AF1010010
:105050001FFA80FA0E485E46018851450CD906E0D9
:1050600008F1010000F0FF08B8F1080FC7D36D1C6C
:10507000EDB200988542B4D3BDE8F88F80CE020827
:1050800014000020C0B6020834BB020824C1020884
:10509000280500202DE9FF4F81B00027DDF838B04A
:1050A0001D46924680463C46B9464FEA5B0627E0DD
:1050B000281B401EC1B20A20FFF76CFEBAFBF0F0BD
:1050C0000A21B0FBF1F201FB120027B9691E8C42E4
:1050D00001DA48B101273030C2B206FB048080B249
:1050E0005B46CDF8009006E006FB048080B25B468C
:1050F0002022CDF800900299FFF75EFF641CE4B215
:10510000AC42D5D305B0BDE8F08F2DE9F84F044689
:1051100000F0FF0810190D46DDE90A761FFA80FA43
:1051200058191FFA80F94FF0000B11E0544502D3D3
:10513000E819444685B24D450FD23B4629462046E4
:10514000CDF800B0FFF738FF04EB570084B2761CAF
:105150003278A2F120005E28E8D9BDE8F88F00007F
:1051600001B5BDF80000ADF80000BDF80000014930
:10517000088008BD0000086001B5BDF80000ADF86A
:105180000000BDF800000149088008BDFEFF07606F
:105190000248034900890880704700002805002064
:1051A000FEFF0760024A1080901C018070470000DB
:1051B000FEFF0760114810B5016886B041F001019B
:1051C000016000680E4C00F0010005900620009080
:1051D0000120019002900320039069462046FBF7CE
:1051E000F5FF012202212046FCF7D0F8012204211C
:1051F0002046FCF7CBF806B010BD00003038024066
:1052000000000240FEE770470907090E002806DA91
:1052100000F00F0000F1E02080F8141D704700F14D
:10522000E02080F8001470477047000070B5214CF2
:1052300092B00025266846F080562660246804F067
:10524000805411941C4C266846F4804626602468DD
:105250000DF1240C04F480441194012400942404DE
:105260000194022406948CE80D006605CDE90761DF
:105270006846FCF731FA00B1FEE70CA90F2081E87F
:1052800031004FF4A0500F904FF480501090052142
:105290000CA8FCF7FDF800B1FEE7FCF77DF841F241
:1052A0000101884204D10548016841F48071016020
:1052B00012B070BD4038024000700040003C024017
:1052C0007047FCF775B800000248016841F47001AE
:1052D0000160704788ED00E00148FCF758BC000011
:1052E0009C040020134808B50268002142F0010226
:1052F000026000684FF0804200F0010000900E480C
:1053000002605322C0E9012140F2E732C0E90321E3
:10531000FCF714FC00B1FEE70748FCF72BFC002269
:1053200011461C20FCF782F8BDE808401C20FCF761
:1053300072B80000403802409C04002010B50A4CAE
:105340002068C068C043C00709D108480069804789
:1053500021680020486221686420C862E0602168FA
:105360006FF00100086110BD38050020900000209A
:10537000F0B50268234D244E244FDFF894C0254B2E
:105380004FF0804EA84209D0704507D0B04205D0FA
:10539000B84203D0604501D0984203D122F0700496
:1053A0004A682243A8421BD0704519D0B04217D09A
:1053B000B84215D0604513D0984211D0164CA04287
:1053C0000ED0164CA0420BD0154CA04208D0154C64
:1053D000A04205D0144CA04202D0144CA04203D1EC
:1053E00022F44074CA68224302608A68C2620A6872
:1053F0008262A84201D0984201D10969016301216A
:105400004161F0BD00000140000400400008004080
:10541000000C0040000401400040014000440140F5
:105420000048014000180040001C004000200040DF
:105430002DE9FF4F83B00E46DDE910A94E4907461E
:105440004FF47840DDF8508008804CA01024CDE95E
:1054500000404B4D9346A0216B882A882820FFF7F7
:1054600054FE48A0CDE900406B882A88A02178200E
:10547000FFF74BFE44A0CDE900406B882A88B42199
:105480002820FFF742FE41A0CDE900406B882A8822
:10549000B4217820FFF739FE3DA0CDE900406B88AC
:1054A0002A88C8212820FFF730FE3AA0CDE9004025
:1054B0006B882A88C8217820FFF727FE36A0CDE91F
:1054C00000406B882A88DC212820FFF71EFE33A0CD
:1054D000CDE900406B882A88DC217820FFF715FE93
:1054E0002FA0CDE900406B882A88F0212820FFF703
:1054F0000CFE04233A46A02140200094FFF7CAFD89
:1055000004233246A02190200094FFF7C3FD04231A
:105510005A46B42140200094FFF7BCFD04230094B8
:10552000B4219020069AFFF7B5FD04235246C82106
:1055300040200094FFF7AEFD04234A46C821902086
:105540000094FFF7A7FD04230094DC214020129A69
:10555000FFF7A0FD04230094DC219020139AFFF7AD
:1055600099FD03234246F02160200094FFF792FD4D
:1055700007B0BDE8F08F00001400002078313A0039
:105580002805002079313A0078323A0079323A0021
:1055900078333A0079333A0078343A0079343A0073
:1055A0006661632069733A002DE9F04F00242DED08
:1055B0000C8B89B025461F20FE4E4FF6FF773080BA
:1055C000FD4807803846FCF757FE4FF47848A6F8A8
:1055D00000803846FCF750FEF84800273780016805
:1055E0004FF0100ACDE900A128216423A02208462B
:1055F000FFF78BFD14214246084600F089FAF04877
:1056000080F820709FEDEF0A80ED090A9FEDEECB48
:105610009FEDEFDB9FEDF0BBF14E80464FF0900B1E
:10562000A0F10409D8F8041047460120884797F8EC
:1056300020000121B1EB901F46D120F0400087F8F7
:10564000200005A8BA8920F8242000EB8400641CFF
:105650000025F98AE4B2B8464180012C06D0022C1C
:1056600011D0032C1ED0042C2ED13CE014214FF677
:10567000FF72084600F04CFA30884FF47842143834
:1056800080B214211EE030884FF6FF72143880B2C9
:10569000142100F03DFA70884FF47842143881B23A
:1056A00014200FE070884FF6FF72143881B2142076
:1056B00000F02EFA70884FF47842143881B23088A6
:1056C000143880B200F024FA0A2004F007FC6D1CA4
:1056D000ADB2B5F57A7FA5D900F052FA09B0BDECAC
:1056E0000C8BBDE8F08FBDF81400BDF81810411AFE
:1056F00000D54942BDF81600BDF81A20801A00D521
:10570000404249434043084425F009FD41EC100B59
:1057100000F097FE51EC100B25F0D4FC84B2BDF8DC
:105720001C00BDF82010411A00D54942BDF81E00EA
:10573000BDF82220801A00D5404249434043084426
:1057400025F0EDFC41EC100B00F07BFE51EC100B52
:1057500025F0B8FC00EE104A87B2F8EE400A00EEE1
:10576000107AB8EE401A80EE810A10EE100A25F089
:1057700025FFB0EE4C9AF0EE6C9A41EC180B53EC0E
:10578000192B25F0DFFC5BD3B0EE4DAAF0EE6DAA2D
:1057900053EC1A2B51EC180B25F00EFE50D3ECB342
:1057A000E7B3BDF81400BDF81C10411A00D54942FA
:1057B000BDF81600BDF81E20801A00D540424943AE
:1057C0004043084425F0ABFC41EC100B00F039FEDF
:1057D00051EC100B25F076FC84B2BDF81800BDF832
:1057E0002010411A00D54942BDF81A00BDF8222008
:1057F000801A00D5404249434043084425F08FFCBD
:1058000041EC100B00F01DFE51EC100B25F05AFC82
:1058100000EE104A80B2F8EE400A00E010E000EE20
:10582000100AB8EE401A80EE810A10EE100A25F038
:10583000C5FE41EC180B53EC192B25F083FC31D23B
:1058400070880024143881B230884FF6FF72143803
:1058500080B200F05DF914214FF47842084600F060
:1058600057F953EC1B2B51EC180B25F0A7FC25F036
:1058700029FC80B2BDF82220BDF82030BDF81E10F2
:10588000CDE90320CDE90113BDF81C000090BDF85F
:105890001A30BDF81820BDF81610BDF81400FFF737
:1058A000C7FDBFE653EC1A2B51EC180B25F084FD15
:1058B000C6D3BDF81800BDF81C10411A00D54942E6
:1058C000BDF81A00BDF81E20801A00D54042494399
:1058D0004043084425F023FC41EC100B00F0B1FDDF
:1058E00051EC100B25F0EEFB84B2BDF81400BDF8AE
:1058F0002010411A00D54942BDF81600BDF82220FB
:10590000801A00D5404249434043084425F007FC33
:1059100041EC100B00F095FD51EC100B25F0D2FB83
:1059200000EE104A80B2F8EE400A00EE100AB8EE1F
:10593000401A80EE810A10EE100A25F03FFE41EC7D
:10594000180B53EC192B25F0FDFBB1D353EC1A2B9C
:1059500051EC180B25F030FDAAD3BDF81820BDF886
:105960001410F6EE001A501A00EE100A3088114496
:10597000B8EEC01AA0F1280300EE103A4746B8EE80
:10598000C00AC0EE010A00EE101AB8EE401A00EE8E
:10599000100AB8EE400AC8ED090A00EEC10A20EE6E
:1059A000210ABDEEC00A10EE101AA8F82C10BDF89E
:1059B0001E3017E0140000201600002000FE020830
:1059C0001C00002000000000666666666666EE3F0A
:1059D000CDCCCCCCCCCCF03F000000000000594036
:1059E00028050020BDF81620FDEEE00A991A00EE09
:1059F000101A71881A44B8EEC01AA1F1280400EEFA
:105A0000104AB8EEC02A82EE010A01EE102AB8EE62
:105A1000412A01EE101AB8EE411A87ED0A0A00EE8B
:105A2000421A21EE211ABDEEC11A11EE102AFA8592
:105A300010EE902A002A00DA5242022A08DCBDEE5B
:105A4000C00A10EE102A002A00DA5242022A2CDD87
:105A500014391438002489B280B24FF6FF7200F076
:105A600057F814214FF47842084600F051F81CA171
:105A7000CDE900A1738832881A212820FFF745FB61
:105A800097F8300048B1002087F8300038B189F825
:105A900000B0D02189F80110C4E50120F4E7D0213D
:105AA00089F8001089F801B0BCE512481F214FF6B3
:105AB000FF7401802046FCF7DFFB0FA1CDE900A1B8
:105AC000738832886E212320FFF71FFB4FF47A7012
:105AD00004F004FA00F0D4F92046FCF7CDFBFDE514
